{
  "contractName": "Fitneth",
  "abi": [
    {
      "constant": true,
      "inputs": [],
      "name": "numPromisers",
      "outputs": [
        {
          "name": "",
          "type": "uint256"
        }
      ],
      "payable": false,
      "stateMutability": "view",
      "type": "function"
    },
    {
      "constant": true,
      "inputs": [],
      "name": "oracle",
      "outputs": [
        {
          "name": "",
          "type": "address"
        }
      ],
      "payable": false,
      "stateMutability": "view",
      "type": "function"
    },
    {
      "constant": true,
      "inputs": [],
      "name": "numWinners",
      "outputs": [
        {
          "name": "",
          "type": "uint256"
        }
      ],
      "payable": false,
      "stateMutability": "view",
      "type": "function"
    },
    {
      "constant": true,
      "inputs": [],
      "name": "owner",
      "outputs": [
        {
          "name": "",
          "type": "address"
        }
      ],
      "payable": false,
      "stateMutability": "view",
      "type": "function"
    },
    {
      "constant": true,
      "inputs": [],
      "name": "totalWinnings",
      "outputs": [
        {
          "name": "",
          "type": "uint256"
        }
      ],
      "payable": false,
      "stateMutability": "view",
      "type": "function"
    },
    {
      "inputs": [],
      "payable": false,
      "stateMutability": "nonpayable",
      "type": "constructor"
    },
    {
      "payable": true,
      "stateMutability": "payable",
      "type": "fallback"
    },
    {
      "constant": false,
      "inputs": [
        {
          "name": "_oracle",
          "type": "address"
        }
      ],
      "name": "chooseOracle",
      "outputs": [
        {
          "name": "",
          "type": "address"
        }
      ],
      "payable": false,
      "stateMutability": "nonpayable",
      "type": "function"
    },
    {
      "constant": false,
      "inputs": [
        {
          "name": "_gpsLocation",
          "type": "string"
        }
      ],
      "name": "makePromise",
      "outputs": [],
      "payable": true,
      "stateMutability": "payable",
      "type": "function"
    },
    {
      "constant": false,
      "inputs": [
        {
          "name": "_gpsLocation",
          "type": "string"
        }
      ],
      "name": "fulfilPromise",
      "outputs": [
        {
          "name": "",
          "type": "bool"
        }
      ],
      "payable": false,
      "stateMutability": "nonpayable",
      "type": "function"
    },
    {
      "constant": false,
      "inputs": [],
      "name": "timeIsUp",
      "outputs": [
        {
          "name": "",
          "type": "uint256"
        }
      ],
      "payable": false,
      "stateMutability": "nonpayable",
      "type": "function"
    },
    {
      "constant": false,
      "inputs": [
        {
          "name": "withdrawAmount",
          "type": "uint256"
        }
      ],
      "name": "withdraw",
      "outputs": [
        {
          "name": "",
          "type": "uint256"
        }
      ],
      "payable": false,
      "stateMutability": "nonpayable",
      "type": "function"
    },
    {
      "constant": true,
      "inputs": [],
      "name": "checkGymLocation",
      "outputs": [
        {
          "name": "",
          "type": "string"
        }
      ],
      "payable": false,
      "stateMutability": "view",
      "type": "function"
    },
    {
      "constant": true,
      "inputs": [],
      "name": "checkOwnPromiseStatus",
      "outputs": [
        {
          "name": "",
          "type": "bool"
        }
      ],
      "payable": false,
      "stateMutability": "view",
      "type": "function"
    },
    {
      "constant": true,
      "inputs": [],
      "name": "checkAllPromiseStatus",
      "outputs": [
        {
          "name": "",
          "type": "uint256"
        },
        {
          "name": "",
          "type": "uint256"
        }
      ],
      "payable": false,
      "stateMutability": "view",
      "type": "function"
    },
    {
      "constant": true,
      "inputs": [],
      "name": "checkWinnings",
      "outputs": [
        {
          "name": "",
          "type": "uint256"
        }
      ],
      "payable": false,
      "stateMutability": "view",
      "type": "function"
    },
    {
      "constant": false,
      "inputs": [],
      "name": "contractReset",
      "outputs": [],
      "payable": false,
      "stateMutability": "nonpayable",
      "type": "function"
    }
  ],
  "bytecode": "0x6060604052600060025560006003556000600455341561001e57600080fd5b336000806101000a81548173ffffffffffffffffffffffffffffffffffffffff021916908373ffffffffffffffffffffffffffffffffffffffff1602179055506110d78061006d6000396000f3006060604052600436106100db576000357c0100000000000000000000000000000000000000000000000000000000900463ffffffff16806309c61552146100e05780632e1a7d4d14610132578063326b89a7146101695780634b663dd9146101995780635ee715d61461020e578063654c2664146102375780637dc0d1d0146102605780638b7bcc86146102b55780638da5cb5b146102de578063a7a5ce8814610333578063b72481f814610348578063d0aa7e2514610371578063e1b11bdc146103ea578063e599f02a14610478578063ec0e86ea146104a5575b600080fd5b610130600480803590602001908201803590602001908080601f016020809104026020016040519081016040528093929190818152602001838380828437820191505050505050919050506104ce565b005b341561013d57600080fd5b610153600480803590602001909190505061065a565b6040518082815260200191505060405180910390f35b341561017457600080fd5b61017c610779565b604051808381526020018281526020019250505060405180910390f35b34156101a457600080fd5b6101f4600480803590602001908201803590602001908080601f0160208091040260200160405190810160405280939291908181526020018383808284378201915050505050509190505061078a565b604051808215151515815260200191505060405180910390f35b341561021957600080fd5b610221610a28565b6040518082815260200191505060405180910390f35b341561024257600080fd5b61024a610a6f565b6040518082815260200191505060405180910390f35b341561026b57600080fd5b610273610a75565b604051808273ffffffffffffffffffffffffffffffffffffffff1673ffffffffffffffffffffffffffffffffffffffff16815260200191505060405180910390f35b34156102c057600080fd5b6102c8610a9b565b6040518082815260200191505060405180910390f35b34156102e957600080fd5b6102f1610aa1565b604051808273ffffffffffffffffffffffffffffffffffffffff1673ffffffffffffffffffffffffffffffffffffffff16815260200191505060405180910390f35b341561033e57600080fd5b610346610ac6565b005b341561035357600080fd5b61035b610c3b565b6040518082815260200191505060405180910390f35b341561037c57600080fd5b6103a8600480803573ffffffffffffffffffffffffffffffffffffffff16906020019091905050610c41565b604051808273ffffffffffffffffffffffffffffffffffffffff1673ffffffffffffffffffffffffffffffffffffffff16815260200191505060405180910390f35b34156103f557600080fd5b6103fd610d09565b6040518080602001828103825283818151815260200191508051906020019080838360005b8381101561043d578082015181840152602081019050610422565b50505050905090810190601f16801561046a5780820380516001836020036101000a031916815260200191505b509250505060405180910390f35b341561048357600080fd5b61048b610df1565b604051808215151515815260200191505060405180910390f35b34156104b057600080fd5b6104b8610e48565b6040518082815260200191505060405180910390f35b6104d6610f74565b6014341415156104e557600080fd5b600760003373ffffffffffffffffffffffffffffffffffffffff1673ffffffffffffffffffffffffffffffffffffffff16815260200190815260200160002060010160009054906101000a900460ff161561053f57600080fd5b604080519081016040528083815260200160001515815250905080600760003373ffffffffffffffffffffffffffffffffffffffff1673ffffffffffffffffffffffffffffffffffffffff16815260200190815260200160002060008201518160000190805190602001906105b5929190610f96565b5060208201518160010160006101000a81548160ff021916908315150217905550905050346004600082825401925050819055503360056003548154811015156105fb57fe5b906000526020600020900160006101000a81548173ffffffffffffffffffffffffffffffffffffffff021916908373ffffffffffffffffffffffffffffffffffffffff1602179055506003600081548092919060010191905055505050565b6000600860003373ffffffffffffffffffffffffffffffffffffffff1673ffffffffffffffffffffffffffffffffffffffff16815260200190815260200160002054821115156107325781600860003373ffffffffffffffffffffffffffffffffffffffff1673ffffffffffffffffffffffffffffffffffffffff168152602001908152602001600020600082825403925050819055503373ffffffffffffffffffffffffffffffffffffffff166108fc839081150290604051600060405180830381858888f19350505050151561073157600080fd5b5b600860003373ffffffffffffffffffffffffffffffffffffffff1673ffffffffffffffffffffffffffffffffffffffff168152602001908152602001600020549050919050565b600080600254600354915091509091565b6000801515600760003373ffffffffffffffffffffffffffffffffffffffff1673ffffffffffffffffffffffffffffffffffffffff16815260200190815260200160002060010160009054906101000a900460ff1615151415156107ed57600080fd5b600760003373ffffffffffffffffffffffffffffffffffffffff1673ffffffffffffffffffffffffffffffffffffffff168152602001908152602001600020600001604051808280546001816001161561010002031660029004801561088a5780601f1061086857610100808354040283529182019161088a565b820191906000526020600020905b815481529060010190602001808311610876575b5050915050604051809103902060001916826040518082805190602001908083835b6020831015156108d157805182526020820191506020810190506020830392506108ac565b6001836020036101000a03801982511681845116808217855250505050505090500191505060405180910390206000191614156109d15733600660025481548110151561091a57fe5b906000526020600020900160006101000a81548173ffffffffffffffffffffffffffffffffffffffff021916908373ffffffffffffffffffffffffffffffffffffffff1602179055506002600081548092919060010191905055506001600760003373ffffffffffffffffffffffffffffffffffffffff1673ffffffffffffffffffffffffffffffffffffffff16815260200190815260200160002060010160006101000a81548160ff0219169083151502179055505b600760003373ffffffffffffffffffffffffffffffffffffffff1673ffffffffffffffffffffffffffffffffffffffff16815260200190815260200160002060010160009054906101000a900460ff169050919050565b6000600860003373ffffffffffffffffffffffffffffffffffffffff1673ffffffffffffffffffffffffffffffffffffffff16815260200190815260200160002054905090565b60035481565b600160009054906101000a900473ffffffffffffffffffffffffffffffffffffffff1681565b60025481565b6000809054906101000a900473ffffffffffffffffffffffffffffffffffffffff1681565b60003373ffffffffffffffffffffffffffffffffffffffff16600160009054906101000a900473ffffffffffffffffffffffffffffffffffffffff1673ffffffffffffffffffffffffffffffffffffffff16141515610b2457600080fd5b600090505b600580549050811015610c205760076000600583815481101515610b4957fe5b906000526020600020900160009054906101000a900473ffffffffffffffffffffffffffffffffffffffff1673ffffffffffffffffffffffffffffffffffffffff1673ffffffffffffffffffffffffffffffffffffffff16815260200190815260200160002060008082016000610bc09190611016565b6001820160006101000a81549060ff02191690555050600581815481101515610be557fe5b906000526020600020900160006101000a81549073ffffffffffffffffffffffffffffffffffffffff02191690558080600101915050610b29565b60006002819055506000600481905550600060038190555050565b60045481565b60003373ffffffffffffffffffffffffffffffffffffffff166000809054906101000a900473ffffffffffffffffffffffffffffffffffffffff1673ffffffffffffffffffffffffffffffffffffffff16141515610c9e57600080fd5b81600160006101000a81548173ffffffffffffffffffffffffffffffffffffffff021916908373ffffffffffffffffffffffffffffffffffffffff160217905550600160009054906101000a900473ffffffffffffffffffffffffffffffffffffffff169050919050565b610d1161105e565b600760003373ffffffffffffffffffffffffffffffffffffffff1673ffffffffffffffffffffffffffffffffffffffff1681526020019081526020016000206000018054600181600116156101000203166002900480601f016020809104026020016040519081016040528092919081815260200182805460018160011615610100020316600290048015610de75780601f10610dbc57610100808354040283529160200191610de7565b820191906000526020600020905b815481529060010190602001808311610dca57829003601f168201915b5050505050905090565b6000600760003373ffffffffffffffffffffffffffffffffffffffff1673ffffffffffffffffffffffffffffffffffffffff16815260200190815260200160002060010160009054906101000a900460ff16905090565b60008060003373ffffffffffffffffffffffffffffffffffffffff16600160009054906101000a900473ffffffffffffffffffffffffffffffffffffffff1673ffffffffffffffffffffffffffffffffffffffff16141515610ea957600080fd5b600680549050600454811515610ebb57fe5b049150600090505b600680549050811015610f64578160086000600684815481101515610ee457fe5b906000526020600020900160009054906101000a900473ffffffffffffffffffffffffffffffffffffffff1673ffffffffffffffffffffffffffffffffffffffff1673ffffffffffffffffffffffffffffffffffffffff168152602001908152602001600020600082825401925050819055508080600101915050610ec3565b610f6c610ac6565b819250505090565b6040805190810160405280610f87611072565b81526020016000151581525090565b828054600181600116156101000203166002900490600052602060002090601f016020900481019282601f10610fd757805160ff1916838001178555611005565b82800160010185558215611005579182015b82811115611004578251825591602001919060010190610fe9565b5b5090506110129190611086565b5090565b50805460018160011615610100020316600290046000825580601f1061103c575061105b565b601f01602090049060005260206000209081019061105a9190611086565b5b50565b602060405190810160405280600081525090565b602060405190810160405280600081525090565b6110a891905b808211156110a457600081600090555060010161108c565b5090565b905600a165627a7a72305820e1db3386e29685733255cba807ec274017dc54d7b3dc90540e871ac1a1852c680029",
  "source": "pragma solidity 0.4.19;\r\n\r\ncontract Fitneth {\r\n    /* Constructor function, where owner and outcomes are set */\r\n    function Fitneth() public {\r\n      owner = msg.sender;\r\n    }\r\n\r\n    function() public payable {\r\n        revert();\r\n    }\r\n\r\n    struct Promise {\r\n        //GPS address of each gym\r\n        string gymLocation;\r\n        bool attendance;\r\n    }\r\n\r\n    modifier ownerOnly() {\r\n      require(owner == msg.sender);\r\n      _;\r\n    }\r\n\r\n    modifier oracleOnly() {\r\n      require(oracle == msg.sender);\r\n      _;\r\n    }\r\n\r\n    modifier singleGPSLog() {\r\n      require(promises[msg.sender].attendance == false);\r\n      _;\r\n    }\r\n\r\n    modifier constantBetSize() {\r\n      require(msg.value == 20);\r\n      _;\r\n    }\r\n\r\n    address public owner;\r\n    address public oracle;\r\n    uint public numWinners = 0;\r\n    uint public numPromisers = 0;\r\n    uint public totalWinnings = 0;\r\n    address[] promisers;\r\n    address[] winners;\r\n\r\n    /*mainnet address is 0xe109ecb193841af9da3110c80fdd365d1c23be2a */\r\n    //address constant scheduler = SchedulerAPI(0xb8da699d7fb01289d4ef718a55c3174971092bef);\r\n    // uint public blockNumber;\r\n    // uint public firstPromiseBlock;\r\n    \r\n    mapping (address => Promise) promises;\r\n    mapping (address => uint) winnings;\r\n\r\n    function chooseOracle(address _oracle) public ownerOnly() returns (address) {\r\n        oracle = _oracle;\r\n        return oracle;\r\n    }\r\n\r\n    //Making promise to exercise. Can only bet constant size of 20.\r\n    function makePromise(string _gpsLocation) public constantBetSize() payable {\r\n        if (promises[msg.sender].attendance) {\r\n            revert();\r\n        }\r\n        Promise memory newPromise = Promise(_gpsLocation, false);\r\n        promises[msg.sender] = newPromise;\r\n        totalWinnings += msg.value;\r\n        //Below code is to help cleanup every week and views\r\n        promisers[numPromisers] = msg.sender;\r\n        numPromisers++;\r\n    }\r\n\r\n    //Logging exercise\r\n    function fulfilPromise(string _gpsLocation) singleGPSLog() public returns (bool) {\r\n        if (keccak256(_gpsLocation) == keccak256(promises[msg.sender].gymLocation)) {\r\n            winners[numWinners] = msg.sender;\r\n            numWinners++;\r\n            promises[msg.sender].attendance = true;\r\n\r\n        }\r\n            \r\n        return promises[msg.sender].attendance;   \r\n    }\r\n\r\n    //The oracle calls this function once a week\r\n    function timeIsUp() public oracleOnly() returns (uint) {\r\n        uint eachWinning = totalWinnings / winners.length;\r\n        for (uint i = 0; i < winners.length; i++) {\r\n            winnings[winners[i]] += eachWinning;\r\n        }\r\n        contractReset();\r\n        return eachWinning;\r\n    }\r\n\r\n    //Withdraw winnings\r\n    function withdraw(uint withdrawAmount) public returns (uint) {\r\n        if (withdrawAmount <= winnings[msg.sender]) {\r\n            winnings[msg.sender] -= withdrawAmount;\r\n            msg.sender.transfer(withdrawAmount);\r\n        }\r\n        return winnings[msg.sender];\r\n    }\r\n\r\n    //Allows users to check the location they promised to exercise\r\n    function checkGymLocation() public view returns (string) {\r\n        return promises[msg.sender].gymLocation;\r\n    }\r\n\r\n    //Allows users to check whether they have fulfilled their promise yet\r\n    function checkOwnPromiseStatus() public view returns (bool) {\r\n        return promises[msg.sender].attendance;\r\n    }\r\n\r\n    //Allows users to see how many people have fulfilled their promise\r\n    function checkAllPromiseStatus() public view returns (uint, uint) {\r\n        return (numWinners, numPromisers);\r\n    }\r\n    \r\n    //Allows users to check winnings\r\n    function checkWinnings() public view returns(uint) {\r\n        return winnings[msg.sender];\r\n    }\r\n\r\n    function contractReset() public oracleOnly() {\r\n        for (uint i = 0; i < promisers.length; i++) {\r\n            delete promises[promisers[i]];\r\n            delete promisers[i];\r\n        }\r\n        numWinners = 0;\r\n        totalWinnings = 0;\r\n        numPromisers = 0;\r\n    }\r\n}\r\n",
  "sourcePath": "C:\\Users\\chinz_000\\Desktop\\Blockchain\\Blockchain @ Berkeley\\Developer Workshop\\First Blockchain Project\\solidity\\contracts\\fitneth.sol",
  "compiler": {
    "name": "solc",
    "version": "0.4.19+commit.c4cbbb05.Emscripten.clang"
  },
  "schemaVersion": "1.0.1",
  "updatedAt": "2018-03-02T19:21:40.613Z"
}